:020000040800F2
:10000000584B0020FD010008E503000889030008A3
:10001000E103000869020008DD0500080000000097
:100020000000000000000000000000006501000862
:100030006D02000800000000A90100085905000831
:10004000170200081702000817020008170200082C
:10005000170200081702000817020008170200081C
:10006000170200081702000817020008170200080C
:1000700017020008170200081702000817020008FC
:1000800017020008170200081702000817020008EC
:1000900017020008170200081702000817020008DC
:1000A00017020008170200081702000817020008CC
:1000B00017020008170200081702000817020008BC
:1000C00017020008170200081702000817020008AC
:1000D000170200081702000817020008170200089C
:1000E00017020008170200081702000800000000AD
:1000F0000000000000000000000000000000000000
:1001000000000000000000001702000817020008AD
:10011000170200081702000817020008170200085B
:10012000170200081702000817020008170200084B
:10013000170200081702000817020008170200083B
:10014000170200081702000817020008170200082B
:10015000DFF80CD000F076F800480047FF050008F3
:10016000584B0020224B19680868B0E8F00F80F364
:100170000988BFF36F8F4FF0000080F311884EF0B5
:100180000D0E70470000000006480068006880F30C
:10019000088862B661B6BFF34F8FBFF36F8F00DF81
:1001A00000BF00BF08ED00E0EFF30980BFF36F8FE1
:1001B0000F4B1A6820E9F00F106008B54FF050009F
:1001C00080F31188BFF34F8FBFF36F8F00F040FFB4
:1001D0004FF0000080F31188BDE8084019680868F6
:1001E000B0E8F00F80F30988BFF36F8F704700BF4E
:1001F00014000020EFF30580704700000648804798
:1002000006480047FEE7FEE7FEE7FEE7FEE7FEE7FB
:10021000FEE7FEE7FEE7FEE78D0500085101000856
:10022000D2B201E000F8012B491EFBD27047002238
:10023000F6E710B513460A4604461946FFF7F0FFE5
:10024000204610BD064C074D06E0E06840F0010373
:1002500094E8070098471034AC42F6D3FFF77CFFD0
:10026000281400084814000800BFFEE770472DE975
:10027000F04102460025002600200023002400272C
:1002800091F803C00CF00F0591F803C00CF0100CAE
:10029000BCF1000F03D091F802C04CEA050591F8BB
:1002A00000C0BCF1000F31D0146800202BE04FF0EB
:1002B000010C0CFA00F3B1F800C00CEA03069E42F0
:1002C00020D183004FF00F0C0CFA03F7BC4305FA62
:1002D00003FC4CEA040491F803C0BCF1280F06D1DA
:1002E0004FF0010C0CFA00FCC2F814C00AE091F8BF
:1002F00003C0BCF1480F05D14FF0010C0CFA00FC13
:10030000C2F810C0401C0828D1D31460B1F800C056
:10031000BCF1FF0F34DD546800202EE000F1080C22
:100320004FF0010808FA0CF3B1F800C00CEA03061C
:100330009E4221D183004FF00F0C0CFA03F7BC430F
:1003400005FA03FC4CEA040491F803C0BCF1280F41
:1003500005D100F1080C08FA0CF8C2F8148091F8E5
:1003600003C0BCF1480F07D100F1080C4FF00108A1
:1003700008FA0CF8C2F81080401C0828CED354604C
:10038000BDE8F0810161704700BFFEE71AE00E484A
:100390000078102804DA0C480078401C0A490870DC
:1003A00009480078102809DB0848007830B9084867
:1003B000006800F087FD0120044908704FF4FA70CE
:1003C00000F052FDE3E700000400002005000020DB
:1003D0001000002003E04FF4FA7000F045FDFAE74A
:1003E00000BFFEE77047000029B1064A9269024348
:1003F000044B9A6104E0034A92698243014B9A617B
:10040000704700000010024010B500F001F810BD68
:100410000CB50020019000903448006840F4803012
:100420003249086000BF3148006800F40030009095
:100430000198401C0190009818B90198B0F5A06F80
:10044000F1D12A48006800F4003010B1012000907A
:1004500001E0002000900098012844D12448006861
:1004600040F01000224908600846006820F00300B0
:1004700008600846006840F0020008601B484068B9
:100480001A4948600846406848600846406840F499
:10049000806048600846406820F47C104860084648
:1004A000406840F4E81048600846006840F08070FA
:1004B000086000BF0D48006800F000700028F9D007
:1004C0000A48406820F00300084948600846406830
:1004D00040F00200486000BF0448406800F00C0093
:1004E0000828F9D101E000BFFEE70CBD0010024072
:1004F000002002401CB504460C4801210023802244
:10050000CDE900100AA10D4800F038FE0C48012189
:1005100000238022CDE900100AA10D4800F02EFE34
:100520000C48006800F0CEFC1CBD00000C00002050
:100530004C45443120537472696B65008D0300088B
:10054000100000204C45443220537472696B6500E2
:10055000D50300080800002010B500BF502080F32C
:100560001188BFF34F8FBFF36F8F00BF00F036FECF
:1005700018B14FF080500449086000BF002080F39C
:10058000118800BF10BD000004ED00E010B5104858
:10059000006840F001000E490860084640680D49B7
:1005A00008400B494860084600680B490840084964
:1005B00008600846006820F480200860084640680B
:1005C00020F4FE00486000208860FFF71DFF10BD8A
:1005D000001002400000FFF8FFFFF6FE00BFFEE73C
:1005E00002E008C8121F08C1002AFAD170477047FC
:1005F000002001E001C1121F002AFBD1704710B595
:1006000000F02AFC00F010FB00F0F8FA00F0D4FC37
:10061000002010BD2DE9F04105460E461C48076834
:100620001C480068001D00F0D5FA50B91948006850
:1006300090F82C100120884017490968814316481A
:100640000160681C38B936B112480168091D1348A9
:1006500000F054FB1AE07C190E4800684460BC426C
:1006600007D20C480168091D0D48006800F02CFBFA
:100670000CE008480168091D0A48006800F024FBE6
:1006800009480068844201D207480460BDE8F0814F
:1006900028000020140000202C000020440300202B
:1006A0001C000020180000204400002010B5044663
:1006B00000F030FB23480068401C224908602248B3
:1006C000006840B9204804600846006801280DD140
:1006D00000F02EF90AE01D48006838B91A48006891
:1006E000C06AE16A884201D8174804601848006867
:1006F000401C1749086094F82C10012088401549C7
:100700000968084313490860E16A01EB8101124A54
:1007100002EB8100211D00F0F1FA00F025FB0B48EF
:10072000006868B108480068C06AE16A884207D278
:100730004FF0805009490860BFF34F8FBFF36F8FB0
:1007400010BD000024000020140000203000002014
:10075000400000202C0000207400002004ED00E088
:1007600070B523E000F06CFC1348006808B9012064
:1007700000E00020054600F0D5FDBDB900F0CAFA42
:100780000D48C068C468201D00F024FA0B480068BA
:10079000401E0A4908600A480068401E084908606F
:1007A00000F0E2FA204600F00DF800BF04480068AF
:1007B0000028D7D170BD00003003002024000020A5
:1007C0002000002010B50446206B00F0EBFA204614
:1007D00000F0E8FA10BD000030B54FF48843174828
:1007E00000F007042CB1C01D20F00700134C041BBF
:1007F0001B1B0246124C22600024114D6C60D01865
:10080000083820F007000F4C206000240D4D2D68A3
:100810006C600C4D2D682C601146441A4C60094CDC
:1008200024680C60084D4C682C60084D4C682C60A6
:100830004FF00044064D2C6030BD000058030020EE
:100840005000002058000020600000205C000020C4
:100850006400002000BFFFF783FF064800680128FE
:10086000F9D94FF0805004490860BFF34F8FBFF3B0
:100870006F8FF0E77400002004ED00E02DE9F05FD9
:1008800082460E4617469B46DDF828800C9CB90030
:10089000A522206BFFF7C4FC781E216B01EB8009B9
:1008A00029F0070909F0070008B9012000E000203D
:1008B00050B900BF502080F31188BFF34F8FBFF3B2
:1008C0006F8F00BF00BFFEE7002507E0715D04F1F8
:1008D00034004155705D00B902E06D1C102DF5D358
:1008E00000BF002143200155B8F1200F01D34FF084
:1008F0001F08C4F82C80201D00F0E3F904F1180053
:1009000000F0DFF92461C8F12000A06164620020DA
:10091000606484F848005A465146484600F048F959
:1009200020600B9808B10B980460BDE8F09F0000B0
:1009300010B5002407E004EB84010F4A02EB8100AC
:1009400000F0B2F9641C202CF5D30C4800F0ACF98F
:100950000B4800F0A9F90B4800F0A6F90A4800F08E
:10096000A3F90A4800F0A0F90448094908600448BE
:100970000849086010BD000074000020F402002047
:10098000080300201C030020300300204403002043
:10099000180000201C00002010B50146164800E099
:1009A000006803688B42FBD30246436813448B42C2
:1009B00004D143684C682344436001460A464B68AF
:1009C00013440468A34211D10C4C03682468A34269
:1009D00008D04B680468646823444B6003681B6854
:1009E0000B6005E0054B1B680B6001E003680B60C2
:1009F000884200D0016010BD500000205800002047
:100A00000A490968096809B9012100E0002121B1FA
:100A10004FF0FF31064A116006E004490968C968D1
:100A2000C868034A41681160704700001800002040
:100A3000440000200E480068401C08B9012000E076
:100A4000002050B900BF502080F31188BFF34F8FB2
:100A5000BFF36F8F00BF00BFFEE700BF502080F3E1
:100A60001188BFF34F8FBFF36F8F00BF00BFFEE74A
:100A7000680000202DE9F04104464FF0000800F026
:100A8000DFFA4648006808B9FFF7A6FE4448006848
:100A9000204000286BD1D4B1083404F00700B0B175
:100AA00004F00700C0F10800044404F0070008B98E
:100AB000012000E0002050B900BF502080F31188D1
:100AC000BFF34F8FBFF36F8F00BF00BFFEE7002C57
:100AD0004DD034480068844249D8334E30460568CA
:100AE00001E02E462D686868A04202D228680028DE
:100AF000F7D12A480068854239D0306800F10808EB
:100B0000286830606868001B102819D92F1907F071
:100B1000070008B9012000E0002050B900BF5020B4
:100B200080F31188BFF34F8FBFF36F8F00BF00BFFB
:100B3000FEE76868001B78606C603846FFF72CFFA2
:100B4000184968680968081A164908600846006864
:100B500016490968884203D21248006813490860A0
:100B60000F4968680968084368600020286000F041
:100B7000D9FB08F0070008B9012000E0002050B9B7
:100B800000BF502080F31188BFF34F8FBFF36F8FEA
:100B900000BF00BFFEE74046BDE8F08158000020DE
:100BA000640000205C000020500000206000002055
:100BB000001F4FF080730360001F21F001030360EA
:100BC000001F034B03601438026020387047000098
:100BD000350A000801460A69D1E901309860D1E977
:100BE000010358605068884201D188685060002035
:100BF00008611068401E1060106870471CB50548F9
:100C0000012100238022CDE9001003A1054800F056
:100C1000B5FA1CBD0800002053797374656D5374D8
:100C200061727400F504000800B5642000F001F85A
:100C300000BD10B5002107E042F63C0200BF131EC4
:100C4000A2F10102FBD1491C8142F5DB10BD00007D
:100C500008B501211020FFF7C7FB10208DF8030015
:100C6000C002ADF8000003208DF8020069460C4870
:100C7000FFF7FDFA10208DF80300C002ADF8000068
:100C800003208DF8020069460548FFF7F0FA40217D
:100C90000448FFF777FB80210248FFF773FB08BD8C
:100CA000001001400008014000F1080141604FF0D0
:100CB000FF31816000F10801C16001610021016024
:100CC000704700210161704710B502460B685C1C3B
:100CD0000CB9106907E002F1080000E040684468C0
:100CE00024689C42FAD944684C604C68A1608860D2
:100CF00041600A611468641C146010BD42684A6057
:100D000093688B60936859609160086103685B1C0D
:100D10000360704700BF502080F31188BFF34F8FEE
:100D2000BFF36F8F00BF0E480068401C0C4908607D
:100D300008460068012812D10A480068C0B208B904
:100D4000012000E0002050B900BF502080F311883E
:100D5000BFF34F8FBFF36F8F00BF00BFFEE7704739
:100D60006800002004ED00E00D48006850B900BFA5
:100D7000502080F31188BFF34F8FBFF36F8F00BFF8
:100D800000BFFEE706480068401E054908600846A7
:100D9000006820B9002080F3118800BF00BF7047B1
:100DA0006800002070B506463546002E3FD0083D4D
:100DB0002C461F4960680968084008B1012000E01E
:100DC000002050B900BF502080F31188BFF34F8F2F
:100DD000BFF36F8F00BF00BFFEE7206808B9012096
:100DE00000E0002050B900BF502080F31188BFF30D
:100DF0004F8FBFF36F8F00BF00BFFEE70C496068E5
:100E00000968084098B1206888B90949606809688C
:100E10008843606000F014F9064960680968084476
:100E2000044908602046FFF7B7FD00F07BFA70BD6B
:100E3000640000205C000020064800684FF47A71CE
:100E4000B0FBF1F0401E4FF0E0214861072008613F
:100E5000704700000000002010B5FFF7F9FE642085
:100E6000FFF7E7FE10BD000070B504460025D4B1C1
:100E70001248006808B9012000E0002050B900BF06
:100E8000502080F31188BFF34F8FBFF36F8F00BFE7
:100E900000BFFEE700F0D4F800212046FFF7BAFBC0
:100EA00000F040FA05463DB94FF080500449086013
:100EB000BFF34F8FBFF36F8F70BD00004C00002059
:100EC00004ED00E070B50546FFF724FF15B9304882
:100ED000006800E028460446201DFFF77BFE78B935
:100EE000E06A00EB80002B4951F8200040B994F8EB
:100EF0002C10012088402849096881432648016058
:100F0000A06A18B104F11800FFF764FE23480068D6
:100F1000401C224908601E480068844209D1211DF6
:100F20001F48FFF7EBFE1F480068401C1D49086082
:100F300009E01D480068401E1B4908602046FFF775
:100F400041FCFFF75DFDFFF70FFF18480068E8B1AF
:100F50000F480068844219D11548006808B901207B
:100F600000E0002050B900BF502080F31188BFF38B
:100F70004F8FBFF36F8F00BF00BFFEE74FF0805071
:100F80000C490860BFF34F8FBFF36F8F70BD000037
:100F900014000020740000202C00002040000020DD
:100FA000300300202000002024000020300000201A
:100FB0004C00002004ED00E01CB51A4800210B464F
:100FC0008022CDE9001018A1194800F0D7F8044696
:100FD000012C15D100BF502080F31188BFF34F8F33
:100FE000BFF36F8F00BF4FF0FF3012490860012040
:100FF0001149086000201149086000F06FF810E006
:10100000601C08B1012000E0002050B900BF502052
:1010100080F31188BFF34F8FBFF36F8F00BF00BF06
:10102000FEE71CBD4800002049444C45000000007C
:10103000550800084400002030000020280000204F
:1010400002480068401C0149086070474C000020BD
:101050001D48006818B101201C49086032E00020DA
:101060001A4908601A480068B0FA80F0C0F11F0100
:1010700001EB8100174A52F8200008B1012000E07E
:10108000002050B900BF502080F31188BFF34F8F6C
:10109000BFF36F8F00BF00BFFEE701EB81020D4B76
:1010A00003EB820042685268426000F10802436824
:1010B000934202D14268526842604268D268064B4D
:1010C0001A6000BF704700004C000020380000206C
:1010D0002C00002074000020140000201CB52248C1
:1010E000014609780191FF210246117001460978F5
:1010F00000919DF8001001F050011C4A1170072169
:101100001B4A116009E01A490968491E184A116012
:101110009DF800104906090E00919DF8001001F09D
:1011200080018029EFD0124909680902104A116034
:101130001146098801F4E06111600B4A01991170B0
:101140000C48006840F470000A49086008460068CE
:1011500040F070400860FFF76FFE0020064908600D
:10116000FFF712F800201CBD00E400E06C00002036
:101170007000002020ED00E0680000202DE9FF4F06
:1011800085B0804689461746DDE912ABB800FFF707
:1011900071FC064656B14C20FFF76CFC04460CB1BE
:1011A000266304E03046FFF7FDFD00E000247CB13B
:1011B0000020CDE900ABCDE902403A464946404621
:1011C000089BFFF75BFB2046FFF770FA012501E063
:1011D0004FF0FF35284609B0BDE8F08F2DE9F0410A
:1011E0004FF0000844480068002877D14348006861
:1011F000451C4248056015BB41480068006808B9B5
:10120000012000E0002050B900BF502080F3118879
:10121000BFF34F8FBFF36F8F00BF00BFFEE73848AB
:10122000076838480068364908603648076036481D
:101230000068401C34490860FFF7E2FB00BF3348F8
:10124000006885423CD300BF2D480068006808B99B
:10125000012000E0002020B14FF0FF302B49086052
:101260002DE027480068C068C4686668B54202D2AD
:101270002648066023E0201DFFF7ACFCA06A18B1E9
:1012800004F11800FFF7A6FC94F82C100120884008
:101290001F49096808431E490860E16A01EB8101A2
:1012A0001C4A02EB8100211DFFF728FD1A49E06A64
:1012B0000968C96A8842C7D34FF00108C4E700BF74
:1012C00015480068C06A00EB8000124951F8200000
:1012D000012801D94FF0010805E0FFE70F48006839
:1012E000401C0E4908600E48006808B14FF0010824
:1012F0004046BDE8F08100004C000020280000209E
:10130000180000201C0000203C00002044000020A9
:101310002C00002074000020140000203400002065
:101320003800002070B5002400263648006850B907
:1013300000BF502080F31188BFF34F8FBFF36F8F32
:1013400000BF00BFFEE7FFF7E5FC2E480068401E27
:101350002C4908600846006800284FD12A480068D8
:1013600000284BD024E02948C068C46804F1180064
:10137000FFF730FC201DFFF72DFC94F82C10012006
:10138000884023490968084321490860E16A01EB64
:101390008101204A02EB8100211DFFF7AFFC1E49AD
:1013A000E06A0968C96A884202D301201B490860C3
:1013B0001648006808B9012000E000200028D2D0BB
:1013C0000CB1FFF71DFB1648056865B100BFFFF7BC
:1013D00005FF10B10120114908606D1E002DF6D1E6
:1013E00000200F4908600D48006838B10126300719
:1013F0000C490860BFF34F8FBFF36F8FFFF7B4FC4A
:10140000304670BD4C000020240000201C0300204A
:101410002C00002074000020140000203800002060
:101420003400002004ED00E0481400080000002013
:1014300074000000E0050008BC14000874000020DF
:10144000E44A0000F005000800A24A040000000081
:10145000000000000000000000000000000000008C
:10146000000000000000000000000000000000007C
:10147000000000000000000000000000000000006C
:10148000000000000000000000000000000000005C
:10149000000000000000000000000000000000004C
:1014A000000000000000000000000000000000003C
:0C14B000AAAAAAAA000000000000000088
:04000005080001519D
:00000001FF
